{"abi":[{"type":"constructor","inputs":[],"stateMutability":"nonpayable"},{"type":"function","name":"MAX_DAILY_MINT","inputs":[],"outputs":[{"name":"","type":"uint256","internalType":"uint256"}],"stateMutability":"view"},{"type":"function","name":"MAX_MINT_PER_TX","inputs":[],"outputs":[{"name":"","type":"uint256","internalType":"uint256"}],"stateMutability":"view"},{"type":"function","name":"MAX_SUPPLY","inputs":[],"outputs":[{"name":"","type":"uint256","internalType":"uint256"}],"stateMutability":"view"},{"type":"function","name":"MINT_FEE","inputs":[],"outputs":[{"name":"","type":"uint256","internalType":"uint256"}],"stateMutability":"view"},{"type":"function","name":"approve","inputs":[{"name":"to","type":"address","internalType":"address"},{"name":"tokenId","type":"uint256","internalType":"uint256"}],"outputs":[],"stateMutability":"nonpayable"},{"type":"function","name":"authorizedSigner","inputs":[],"outputs":[{"name":"","type":"address","internalType":"address"}],"stateMutability":"view"},{"type":"function","name":"balanceOf","inputs":[{"name":"owner","type":"address","internalType":"address"}],"outputs":[{"name":"","type":"uint256","internalType":"uint256"}],"stateMutability":"view"},{"type":"function","name":"blessings","inputs":[{"name":"","type":"uint256","internalType":"uint256"}],"outputs":[{"name":"","type":"string","internalType":"string"}],"stateMutability":"view"},{"type":"function","name":"buyItem","inputs":[{"name":"tokenId","type":"uint256","internalType":"uint256"}],"outputs":[],"stateMutability":"payable"},{"type":"function","name":"cancelListing","inputs":[{"name":"tokenId","type":"uint256","internalType":"uint256"}],"outputs":[],"stateMutability":"nonpayable"},{"type":"function","name":"creatorRevenue","inputs":[{"name":"","type":"address","internalType":"address"}],"outputs":[{"name":"","type":"uint256","internalType":"uint256"}],"stateMutability":"view"},{"type":"function","name":"dailyMintedCount","inputs":[{"name":"","type":"address","internalType":"address"}],"outputs":[{"name":"","type":"uint256","internalType":"uint256"}],"stateMutability":"view"},{"type":"function","name":"getApproved","inputs":[{"name":"tokenId","type":"uint256","internalType":"uint256"}],"outputs":[{"name":"","type":"address","internalType":"address"}],"stateMutability":"view"},{"type":"function","name":"getListing","inputs":[{"name":"tokenId","type":"uint256","internalType":"uint256"}],"outputs":[{"name":"","type":"address","internalType":"address"},{"name":"","type":"uint256","internalType":"uint256"},{"name":"","type":"bool","internalType":"bool"}],"stateMutability":"view"},{"type":"function","name":"isApprovedForAll","inputs":[{"name":"owner","type":"address","internalType":"address"},{"name":"operator","type":"address","internalType":"address"}],"outputs":[{"name":"","type":"bool","internalType":"bool"}],"stateMutability":"view"},{"type":"function","name":"lastMintDay","inputs":[{"name":"","type":"address","internalType":"address"}],"outputs":[{"name":"","type":"uint256","internalType":"uint256"}],"stateMutability":"view"},{"type":"function","name":"listItem","inputs":[{"name":"tokenId","type":"uint256","internalType":"uint256"},{"name":"price","type":"uint256","internalType":"uint256"}],"outputs":[],"stateMutability":"nonpayable"},{"type":"function","name":"listings","inputs":[{"name":"","type":"uint256","internalType":"uint256"}],"outputs":[{"name":"seller","type":"address","internalType":"address"},{"name":"price","type":"uint256","internalType":"uint256"},{"name":"isListed","type":"bool","internalType":"bool"}],"stateMutability":"view"},{"type":"function","name":"mint","inputs":[{"name":"blessing","type":"string","internalType":"string"},{"name":"rarity","type":"uint8","internalType":"uint8"}],"outputs":[],"stateMutability":"payable"},{"type":"function","name":"mintWithSignature","inputs":[{"name":"blessing","type":"string","internalType":"string"},{"name":"rarity","type":"uint8","internalType":"uint8"},{"name":"expiresAt","type":"uint256","internalType":"uint256"},{"name":"signature","type":"bytes","internalType":"bytes"}],"outputs":[],"stateMutability":"payable"},{"type":"function","name":"name","inputs":[],"outputs":[{"name":"","type":"string","internalType":"string"}],"stateMutability":"view"},{"type":"function","name":"owner","inputs":[],"outputs":[{"name":"","type":"address","internalType":"address"}],"stateMutability":"view"},{"type":"function","name":"ownerOf","inputs":[{"name":"tokenId","type":"uint256","internalType":"uint256"}],"outputs":[{"name":"","type":"address","internalType":"address"}],"stateMutability":"view"},{"type":"function","name":"rarities","inputs":[{"name":"","type":"uint256","internalType":"uint256"}],"outputs":[{"name":"","type":"uint8","internalType":"uint8"}],"stateMutability":"view"},{"type":"function","name":"renounceOwnership","inputs":[],"outputs":[],"stateMutability":"nonpayable"},{"type":"function","name":"safeTransferFrom","inputs":[{"name":"from","type":"address","internalType":"address"},{"name":"to","type":"address","internalType":"address"},{"name":"tokenId","type":"uint256","internalType":"uint256"}],"outputs":[],"stateMutability":"nonpayable"},{"type":"function","name":"safeTransferFrom","inputs":[{"name":"from","type":"address","internalType":"address"},{"name":"to","type":"address","internalType":"address"},{"name":"tokenId","type":"uint256","internalType":"uint256"},{"name":"data","type":"bytes","internalType":"bytes"}],"outputs":[],"stateMutability":"nonpayable"},{"type":"function","name":"setApprovalForAll","inputs":[{"name":"operator","type":"address","internalType":"address"},{"name":"approved","type":"bool","internalType":"bool"}],"outputs":[],"stateMutability":"nonpayable"},{"type":"function","name":"setAuthorizedSigner","inputs":[{"name":"_signer","type":"address","internalType":"address"}],"outputs":[],"stateMutability":"nonpayable"},{"type":"function","name":"supportsInterface","inputs":[{"name":"interfaceId","type":"bytes4","internalType":"bytes4"}],"outputs":[{"name":"","type":"bool","internalType":"bool"}],"stateMutability":"view"},{"type":"function","name":"symbol","inputs":[],"outputs":[{"name":"","type":"string","internalType":"string"}],"stateMutability":"view"},{"type":"function","name":"tokenURI","inputs":[{"name":"tokenId","type":"uint256","internalType":"uint256"}],"outputs":[{"name":"","type":"string","internalType":"string"}],"stateMutability":"view"},{"type":"function","name":"transferFrom","inputs":[{"name":"from","type":"address","internalType":"address"},{"name":"to","type":"address","internalType":"address"},{"name":"tokenId","type":"uint256","internalType":"uint256"}],"outputs":[],"stateMutability":"nonpayable"},{"type":"function","name":"transferOwnership","inputs":[{"name":"newOwner","type":"address","internalType":"address"}],"outputs":[],"stateMutability":"nonpayable"},{"type":"function","name":"txMintCount","inputs":[{"name":"","type":"address","internalType":"address"}],"outputs":[{"name":"","type":"uint256","internalType":"uint256"}],"stateMutability":"view"},{"type":"function","name":"usedSignatures","inputs":[{"name":"","type":"bytes","internalType":"bytes"}],"outputs":[{"name":"","type":"bool","internalType":"bool"}],"stateMutability":"view"},{"type":"function","name":"withdrawRevenue","inputs":[],"outputs":[],"stateMutability":"nonpayable"},{"type":"event","name":"Approval","inputs":[{"name":"owner","type":"address","indexed":true,"internalType":"address"},{"name":"approved","type":"address","indexed":true,"internalType":"address"},{"name":"tokenId","type":"uint256","indexed":true,"internalType":"uint256"}],"anonymous":false},{"type":"event","name":"ApprovalForAll","inputs":[{"name":"owner","type":"address","indexed":true,"internalType":"address"},{"name":"operator","type":"address","indexed":true,"internalType":"address"},{"name":"approved","type":"bool","indexed":false,"internalType":"bool"}],"anonymous":false},{"type":"event","name":"BatchMetadataUpdate","inputs":[{"name":"_fromTokenId","type":"uint256","indexed":false,"internalType":"uint256"},{"name":"_toTokenId","type":"uint256","indexed":false,"internalType":"uint256"}],"anonymous":false},{"type":"event","name":"ItemBought","inputs":[{"name":"tokenId","type":"uint256","indexed":true,"internalType":"uint256"},{"name":"buyer","type":"address","indexed":true,"internalType":"address"},{"name":"price","type":"uint256","indexed":false,"internalType":"uint256"}],"anonymous":false},{"type":"event","name":"ItemListed","inputs":[{"name":"tokenId","type":"uint256","indexed":true,"internalType":"uint256"},{"name":"seller","type":"address","indexed":true,"internalType":"address"},{"name":"price","type":"uint256","indexed":false,"internalType":"uint256"}],"anonymous":false},{"type":"event","name":"ListingCancelled","inputs":[{"name":"tokenId","type":"uint256","indexed":true,"internalType":"uint256"}],"anonymous":false},{"type":"event","name":"MetadataUpdate","inputs":[{"name":"_tokenId","type":"uint256","indexed":false,"internalType":"uint256"}],"anonymous":false},{"type":"event","name":"OwnershipTransferred","inputs":[{"name":"previousOwner","type":"address","indexed":true,"internalType":"address"},{"name":"newOwner","type":"address","indexed":true,"internalType":"address"}],"anonymous":false},{"type":"event","name":"Transfer","inputs":[{"name":"from","type":"address","indexed":true,"internalType":"address"},{"name":"to","type":"address","indexed":true,"internalType":"address"},{"name":"tokenId","type":"uint256","indexed":true,"internalType":"uint256"}],"anonymous":false},{"type":"error","name":"ECDSAInvalidSignature","inputs":[]},{"type":"error","name":"ECDSAInvalidSignatureLength","inputs":[{"name":"length","type":"uint256","internalType":"uint256"}]},{"type":"error","name":"ECDSAInvalidSignatureS","inputs":[{"name":"s","type":"bytes32","internalType":"bytes32"}]},{"type":"error","name":"ERC721IncorrectOwner","inputs":[{"name":"sender","type":"address","internalType":"address"},{"name":"tokenId","type":"uint256","internalType":"uint256"},{"name":"owner","type":"address","internalType":"address"}]},{"type":"error","name":"ERC721InsufficientApproval","inputs":[{"name":"operator","type":"address","internalType":"address"},{"name":"tokenId","type":"uint256","internalType":"uint256"}]},{"type":"error","name":"ERC721InvalidApprover","inputs":[{"name":"approver","type":"address","internalType":"address"}]},{"type":"error","name":"ERC721InvalidOperator","inputs":[{"name":"operator","type":"address","internalType":"address"}]},{"type":"error","name":"ERC721InvalidOwner","inputs":[{"name":"owner","type":"address","internalType":"address"}]},{"type":"error","name":"ERC721InvalidReceiver","inputs":[{"name":"receiver","type":"address","internalType":"address"}]},{"type":"error","name":"ERC721InvalidSender","inputs":[{"name":"sender","type":"address","internalType":"address"}]},{"type":"error","name":"ERC721NonexistentToken","inputs":[{"name":"tokenId","type":"uint256","internalType":"uint256"}]},{"type":"error","name":"OwnableInvalidOwner","inputs":[{"name":"owner","type":"address","internalType":"address"}]},{"type":"error","name":"OwnableUnauthorizedAccount","inputs":[{"name":"account","type":"address","internalType":"address"}]},{"type":"error","name":"ReentrancyGuardReentrantCall","inputs":[]}],"bytecode":{"object":"0x6080346200036c576001600160401b0390604090808201838111828210176200028a578252600d81526020926c437962657220466f7274756e6560981b84830152825193838501858110838211176200028a578452600885526743464f5254554e4560c01b818601528251908282116200028a575f54916001948584811c9416801562000361575b838510146200026b578190601f948581116200030e575b508390858311600114620002aa575f926200029e575b50505f19600383901b1c191690851b175f555b85519283116200028a5783548481811c911680156200027f575b828210146200026b5782811162000223575b5080918311600114620001be5750819293945f92620001b2575b50505f19600383901b1c191690821b1781555b33156200019b5760078054336001600160a01b0319821681179092559251926001600160a01b03167f8be0079c531659141344cd1fd0a4f28419497f9722a3daafe3b4186f6b6457e05f80a37f9b779b17422d0df92223018b32b4d1fa46e071723d6817e2486d003becc55f00556124f49081620003718239f35b8151631e4fbdf760e01b81525f6004820152602490fd5b015190505f806200010d565b90601f19831695845f52825f20925f905b8882106200020b5750508385969710620001f2575b505050811b01815562000120565b01515f1960f88460031b161c191690555f8080620001e4565b808785968294968601518155019501930190620001cf565b845f52815f208380860160051c82019284871062000261575b0160051c019085905b82811062000255575050620000f3565b5f815501859062000245565b925081926200023c565b634e487b7160e01b5f52602260045260245ffd5b90607f1690620000e1565b634e487b7160e01b5f52604160045260245ffd5b015190505f80620000b4565b90879350601f198316915f8052855f20925f5b87828210620002f75750508411620002de575b505050811b015f55620000c7565b01515f1960f88460031b161c191690555f8080620002d0565b8385015186558b97909501949384019301620002bd565b9091505f8052835f208580850160051c82019286861062000357575b918991869594930160051c01915b828110620003485750506200009e565b5f815585945089910162000338565b925081926200032a565b93607f169362000087565b5f80fdfe608060409080825260049081361015610016575f80fd5b5f3560e01c90816301ffc9a7146115295750806306fdde031461147c578063081812fc1461145d578063095ea7b314611437578063107a274a146113c457806314e9fdb31461139a57806317b8e1cf1461136f57806323b872dd146113585780632ddbeb5214611321578063305a67a81461126557806332cb6b0c1461124957806342842e0e1461121b5780634cbdd70e146111e45780634f573cb2146111365780635923f7051461111b5780636352211e146110eb57806370a0823114611096578063715018a61461103b578063883efa6714610eb55780638c6faa8b14610a685780638da5cb5b14610a405780638ecad72114610a2557806395d89b41146109425780639ef7dace1461090b578063a22cb46514610849578063b88d4fde146107ef578063c211372b146107b8578063c771909c14610790578063c87b56dd1461075d578063d279b0ca146106e3578063d7bf81a3146106c2578063de74e57b1461066b578063e7fb74c714610479578063e949580e14610418578063e985e9c5146103ca578063f2fde38b146103415763f3006c87146101b7575f80fd5b8160031936011261033d5767ffffffffffffffff90803582811161033d576101e2903690830161179c565b6101ed9391936117ca565b92610201662386f26fc10000341015611a47565b600854946102126127108710611a8b565b61021b86611acc565b6008556102288633611c8b565b855f52602091600e602052875f2094841161032a57506102528361024c865461161f565b86611aee565b5f91601f84116001146102bd5750826102b0979360ff9593610289935f926102b2575b50508160011b915f199060031b1c19161790565b90555b835f52600f6020525f20911660ff198254161790556102aa81611e19565b90611e95565b005b013590505f80610275565b91601f198416855f5260205f20935f905b8282106103125750509260019285926102b09a9660ff9896106102f9575b505050811b01905561028c565b01355f19600384901b60f8161c191690555f80806102ec565b806001859782949688013581550196019301906102ce565b604190634e487b7160e01b5f525260245ffd5b5f80fd5b503461033d57602036600319011261033d5761035b6115f3565b90610364611c30565b6001600160a01b039182169283156103b4575050600754826001600160601b0360a01b821617600755167f8be0079c531659141344cd1fd0a4f28419497f9722a3daafe3b4186f6b6457e05f80a3005b905f6024925191631e4fbdf760e01b8352820152fd5b823461033d578060031936011261033d576020906103e66115f3565b6103ee611609565b9060018060a01b038091165f5260058452825f2091165f52825260ff815f20541690519015158152f35b50903461033d57602036600319011261033d5781359167ffffffffffffffff831161033d57610464602061045260ff93829636910161182c565b818551938285809451938492016115ad565b8101600a815203019020541690519015158152f35b5060208060031936011261033d57813590610492611c5c565b815f5260108152835f209084516104a881611657565b60018060a01b03908184541681526104d860ff600260018701549686850197885201541615158089840152611a0e565b83513410610631576104e98561184a565b82309116036105ff578181511633156105e9576105068633611b77565b80841680610525578951637e27328960e01b8152808a01899052602490fd5b90828a9992036105b5575050505f80809381935116819034156105ab575b3491f1156105a1577fd73457218f6ab2c74e548247b8ccd99af11d7975e2beef89a0cd9743fb558da491835f52601082525f600286822082815582600182015501555193519384523393a360015f8051602061249f83398151915255005b83513d5f823e3d90fd5b6108fc9150610543565b88516364283d7b60e01b81526001600160a01b03938416928101928352602083018990529216604082015281906060010390fd5b8751633250574960e11b81525f81890152602490fd5b865162461bcd60e51b8152808701849052600c60248201526b139bdd08185c1c1c9bdd995960a21b6044820152606490fd5b865162461bcd60e51b81528087018490526014602482015273125b9cdd59999a58da595b9d081c185e5b595b9d60621b6044820152606490fd5b503461033d57602036600319011261033d57355f90815260106020908152908290208054600182015460029092015493516001600160a01b0390911681529182015260ff90911615156040820152606090f35b0390f35b823461033d575f36600319011261033d5760209051662386f26fc100008152f35b503461033d57602036600319011261033d576106fd6115f3565b610705611c30565b6001600160a01b031691821561072957600980546001600160a01b03191684179055005b906020606492519162461bcd60e51b8352820152600e60248201526d24b73b30b634b21039b4b3b732b960911b6044820152fd5b50903461033d57602036600319011261033d5761077d6106be9235612101565b90519182916020835260208301906115ce565b823461033d575f36600319011261033d5760095490516001600160a01b039091168152602090f35b823461033d57602036600319011261033d576020906001600160a01b036107dd6115f3565b165f52600d8252805f20549051908152f35b503461033d57608036600319011261033d576108096115f3565b610811611609565b6044359060643567ffffffffffffffff811161033d576102b0946108379136910161182c565b9261084383838361186e565b33611fb7565b50903461033d578060031936011261033d576108636115f3565b906024358015159283820361033d5733156108f5576001600160a01b03169384156108de57506108b290335f526005602052825f20855f52602052825f209060ff801983541691151516179055565b519081527f17307eab39ab6107e8899845ad3d59bd9653f200f220920489ca2b5937696c3160203392a3005b8251630b61174360e31b8152908101859052602490fd5b825163a9fbf51f60e01b81525f81870152602490fd5b823461033d57602036600319011261033d576020906001600160a01b036109306115f3565b165f5260118252805f20549051908152f35b823461033d575f36600319011261033d578051905f9082600192600154936109698561161f565b90818452602095866001821691825f14610a035750506001146109a8575b50506106be92916109999103856116a3565b519282849384528301906115ce565b9085925060015f527fb10e2d527612073b26eecdfd717e6a320cf44b4afac2b0732d9fcbe2b7fa0cf6915f925b8284106109eb5750505082010181610999610987565b8054848a0186015288955087949093019281016109d5565b60ff19168682015292151560051b850190920192508391506109999050610987565b823461033d575f36600319011261033d576020905160058152f35b823461033d575f36600319011261033d5760075490516001600160a01b039091168152602090f35b50608036600319011261033d5767ffffffffffffffff91813583811161033d57610a95903690840161179c565b939091610aa06117ca565b91604495863596606495863584811161033d57610ac09036908a0161179c565b90610ac9611c5c565b610adc662386f26fc10000341015611a47565b610aeb61271060085410611a8b565b8a421015610e805760ff88169760058911610e4e57335f5260209b600d8d526005895f20541015610e1a5790610b7860758e93335f52600d85528b5f20610b328154611acc565b9055600854938c51948592878401978d8c8a378d85019360ff60f81b9060f81b1690840152602183015260418201523360601b60618201520360558101845201826116a3565b5190207f19457468657265756d205369676e6564204d6573736167653a0a3332000000005f52601c52610bc5610bbc603c5f20610bb63686866117f6565b9061226d565b909291926122a7565b6009546001600160a01b03908116911603610de55760ff8751838382378c81858101600a8152030190205416610dab578a9082885193849283378101600a8152030190209660019260ff199860018a825416179055620151804204335f52600c8c5280885f205403610d94575b50600b8b52600a875f20541015610d62575050335f52600b8952845f20610c598154611acc565b905560085497610c6889611acc565b600855610c758933611c8b565b885f52600e8a52855f2094841161032a5750610c958361024c865461161f565b5f91601f8411600114610cf7575082610ce49993600f9593610ccb935f926102b25750508160011b915f199060031b1c19161790565b90555b855f52525f20918254161790556102aa81611e19565b60015f8051602061249f83398151915255005b91601f198416855f528a5f20935f905b828210610d4b575050926001928592610ce49c96600f989610610d32575b505050811b019055610cce565b01355f19600384901b60f8161c191690555f8080610d25565b84840135865594850194928c0192908c0190610d07565b6f11185a5b1e481b5a5b9d081b1a5b5a5d60821b8a918c89519362461bcd60e51b855284015260106024840152820152fd5b600b8c525f88812055600c8c52875f20555f610c32565b865162461bcd60e51b8152808b018c9052601660248201527514da59db985d1d5c9948185b1c9958591e481d5cd95960521b818601528990fd5b865162461bcd60e51b8152808b018c90526011602482015270496e76616c6964207369676e617475726560781b818601528990fd5b50875162461bcd60e51b8152808c018d9052600f60248201526e09ac2f040dad2dce840e0cae440e8f608b1b818701528a90fd5b875162461bcd60e51b81526020818d0152600e60248201526d496e76616c69642072617269747960901b818701528a90fd5b865162461bcd60e51b81526020818c0152601160248201527014da59db985d1d5c9948195e1c1a5c9959607a1b818601528990fd5b50903461033d578060031936011261033d5781359060243592610ed783611b3d565b6001600160a01b0391903390831603611008578415610fd157835f52601060205260ff6002845f20015416610f9d5750610f7190610f163385306121b0565b6002835191610f2483611657565b338352602083018781528584019160018352875f526010602052865f209451166001600160601b0360a01b85541617845551600184015551151591019060ff801983541691151516179055565b519182527fc93edc6ee14cd6c0c2842099adfa8953b237dbdad304ba28e96dce8a7f2a828c60203393a3005b606490602084519162461bcd60e51b8352820152600e60248201526d105b1c9958591e481b1a5cdd195960921b6044820152fd5b606490602084519162461bcd60e51b8352820152601160248201527005072696365206d757374206265203e203607c1b6044820152fd5b606490602084519162461bcd60e51b8352820152600d60248201526c2737ba103a34329037bbb732b960991b6044820152fd5b3461033d575f36600319011261033d57611053611c30565b600780546001600160a01b031981169091555f906001600160a01b03167f8be0079c531659141344cd1fd0a4f28419497f9722a3daafe3b4186f6b6457e08280a3005b50903461033d57602036600319011261033d576001600160a01b036110b96115f3565b1680156110d557602092505f5260038252805f20549051908152f35b81516322718ad960e21b81525f81850152602490fd5b50903461033d57602036600319011261033d5761110a60209235611b3d565b90516001600160a01b039091168152f35b823461033d575f36600319011261033d5760209051600a8152f35b503461033d575f36600319011261033d5761114f611c30565b611157611c5c565b6007546001600160a01b039081165f8181526011602052849020549283156111b457505f8093819382938352601160205282878120556007541682f1156111ab5760015f8051602061249f83398151915255005b513d5f823e3d90fd5b606490602086519162461bcd60e51b8352820152600a6024820152694e6f20726576656e756560b01b6044820152fd5b823461033d57602036600319011261033d576020906001600160a01b036112096115f3565b165f52600b8252805f20549051908152f35b823461033d576102b09061122e36611767565b9192519261123b84611687565b5f845261084383838361186e565b823461033d575f36600319011261033d57602090516127108152f35b50903461033d57602036600319011261033d5781355f8181526010602052829020549092906001600160a01b031633036112f2575060025f9183835260106020526112b760ff83838620015416611a0e565b8383526010602052822082815582600182015501557f411aee90354c51b1b04cd563fcab2617142a9d50da19232d888547c8a1b7fd8a5f80a2005b6020606492519162461bcd60e51b8352820152600a6024820152692737ba1039b2b63632b960b11b6044820152fd5b823461033d57602036600319011261033d576020906001600160a01b036113466115f3565b165f52600c8252805f20549051908152f35b3461033d576102b061136936611767565b9161186e565b50903461033d57602036600319011261033d57602091355f52600f825260ff815f2054169051908152f35b50903461033d57602036600319011261033d576106be91355f52600e60205261077d815f206116c5565b503461033d57602036600319011261033d57355f526010602052805f20906106be8151916113f183611657565b83546001600160a01b03168084526001850154602080860182905260029096015460ff161515948301859052915190815293840152604083019190915281906060820190565b823461033d5736600319011261033d576102b06114526115f3565b3390602435906121b0565b50903461033d57602036600319011261033d5761110a6020923561184a565b823461033d575f36600319011261033d578051905f90825f549261149f8461161f565b808352602094600190866001821691825f14610a035750506001146114d05750506106be92916109999103856116a3565b5f80805286935091907f290decd9548b62a8d60345a988386fc84ba6bc95484008f6362f93160ef3e5635b8284106115115750505082010181610999610987565b8054848a0186015288955087949093019281016114fb565b823461033d57602036600319011261033d57359063ffffffff60e01b821680920361033d57602091632483248360e11b811490811561156a575b5015158152f35b6380ac58cd60e01b81149150811561159c575b811561158b575b5083611563565b6301ffc9a760e01b14905083611584565b635b5e139f60e01b8114915061157d565b5f5b8381106115be5750505f910152565b81810151838201526020016115af565b906020916115e7815180928185528580860191016115ad565b601f01601f1916010190565b600435906001600160a01b038216820361033d57565b602435906001600160a01b038216820361033d57565b90600182811c9216801561164d575b602083101461163957565b634e487b7160e01b5f52602260045260245ffd5b91607f169161162e565b6060810190811067ffffffffffffffff82111761167357604052565b634e487b7160e01b5f52604160045260245ffd5b6020810190811067ffffffffffffffff82111761167357604052565b90601f8019910116810190811067ffffffffffffffff82111761167357604052565b9060405191825f82546116d78161161f565b908184526020946001916001811690815f146117455750600114611707575b505050611705925003836116a3565b565b5f90815285812095935091905b81831061172d57505061170593508201015f80806116f6565b85548884018501529485019487945091830191611714565b9250505061170594925060ff191682840152151560051b8201015f80806116f6565b606090600319011261033d576001600160a01b0390600435828116810361033d5791602435908116810361033d579060443590565b9181601f8401121561033d5782359167ffffffffffffffff831161033d576020838186019501011161033d57565b6024359060ff8216820361033d57565b67ffffffffffffffff811161167357601f01601f191660200190565b929192611802826117da565b9161181060405193846116a3565b82948184528183011161033d578281602093845f960137010152565b9080601f8301121561033d57816020611847933591016117f6565b90565b61185381611b3d565b505f908152600460205260409020546001600160a01b031690565b906001600160a01b0390811680156119f657835f52602091600283528460409282845f2054169433151580611964575b5060029086611933575b825f5260038152855f2060018154019055835f5252835f20816001600160601b0360a01b825416179055847fddf252ad1be2c89b69c2b068fc378daa952ba7f163c4a11628f55a4df523b3ef5f80a4831682036119055750505050565b516364283d7b60e01b81526001600160a01b0392831660048201526024810193909352166044820152606490fd5b5f84815260046020526040812080546001600160a01b03191690558781526003825286902080545f190190556118a8565b91925090806119b5575b1561197c579086915f61189e565b838786611999576024915190637e27328960e01b82526004820152fd5b604491519063177e802f60e01b82523360048301526024820152fd5b5033851480156119da575b8061196e5750865f52600481523383855f2054161461196e565b50845f5260058152835f20335f52815260ff845f2054166119c0565b604051633250574960e11b81525f6004820152602490fd5b15611a1557565b60405162461bcd60e51b815260206004820152600a602482015269139bdd081b1a5cdd195960b21b6044820152606490fd5b15611a4e57565b60405162461bcd60e51b8152602060048201526015602482015274496e73756666696369656e74206d696e742066656560581b6044820152606490fd5b15611a9257565b60405162461bcd60e51b815260206004820152601260248201527113585e081cdd5c1c1b1e481c995858da195960721b6044820152606490fd5b5f198114611ada5760010190565b634e487b7160e01b5f52601160045260245ffd5b601f8211611afb57505050565b5f5260205f20906020601f840160051c83019310611b33575b601f0160051c01905b818110611b28575050565b5f8155600101611b1d565b9091508190611b14565b5f818152600260205260409020546001600160a01b0316908115611b5f575090565b60249060405190637e27328960e01b82526004820152fd5b5f828152600260205260409020546001600160a01b03908116929183611bfd575b1680611be5575b815f52600260205260405f20816001600160601b0360a01b825416179055827fddf252ad1be2c89b69c2b068fc378daa952ba7f163c4a11628f55a4df523b3ef5f80a490565b805f52600360205260405f2060018154019055611b9f565b5f83815260046020526040902080546001600160a01b0319169055835f52600360205260405f205f198154019055611b98565b6007546001600160a01b03163303611c4457565b60405163118cdaa760e01b8152336004820152602490fd5b5f8051602061249f8339815191526002815414611c795760029055565b604051633ee5aeb560e01b8152600490fd5b906040908151611c9a81611687565b5f81526001600160a01b0384811694908515611e0257611cba8483611b77565b16611deb573b611ccb575b50505050565b90611d099491835190630a85bd0160e11b928383523360048401525f60248401526044830152608060648301528180602098899360848301906115ce565b03815f895af15f9181611dab575b50611d75575050503d5f14611d6d573d92611d31846117da565b93611d3e835195866116a3565b84523d5f8286013e5b83519384611d67578251633250574960e11b815260048101859052602490fd5b84925001fd5b606092611d47565b9194506001600160e01b031990911603611d945750505f808080611cc5565b602492505190633250574960e11b82526004820152fd5b9091508681813d8311611de4575b611dc381836116a3565b8101031261033d57516001600160e01b03198116810361033d57905f611d17565b503d611db9565b83516339e3563760e11b81525f6004820152602490fd5b8451633250574960e11b81525f6004820152602490fd5b611e229061232a565b611847604a60405180937519185d184e985c1c1b1a58d85d1a5bdb8bda9cdbdb8b60521b6020830152717b226e616d65223a22466f7274756e65202360701b6036830152611e7a8151809260206048860191016115ad565b810161227d60f01b604882015203602a8101845201826116a3565b919091805f526020906006825260405f2084519467ffffffffffffffff861161167357611ecc86611ec6845461161f565b84611aee565b8390601f8711600114611f33579580611f1c927ff8e1a15aba9398e019f0b49df1a4fde98ee17ae345cb5f6b5e2c27f5033e8ce797985f92611f285750508160011b915f199060031b1c19161790565b90555b604051908152a1565b015190505f80610275565b90601f19871691835f52855f20925f5b818110611fa057509160019391897ff8e1a15aba9398e019f0b49df1a4fde98ee17ae345cb5f6b5e2c27f5033e8ce7999a9410611f88575b505050811b019055611f1f565b01515f1960f88460031b161c191690555f8080611f7b565b929387600181928786015181550195019301611f43565b9293909193843b611fca575b5050505050565b604051630a85bd0160e11b8082526001600160a01b03958616600483015293851660248201526044810191909152608060648201526020959490931693929085908290819061201d9060848301906115ce565b03815f885af15f91816120c1575b5061208a575050503d5f14612082573d91612045836117da565b9261205360405194856116a3565b83523d5f8285013e5b8251928361207d57604051633250574960e11b815260048101849052602490fd5b019050fd5b60609161205c565b9193506001600160e01b0319909116036120a957505f80808080611fc3565b60249060405190633250574960e11b82526004820152fd5b9091508581813d83116120fa575b6120d981836116a3565b8101031261033d57516001600160e01b03198116810361033d57905f61202b565b503d6120cf565b61210a81611b3d565b506040519061211882611687565b5f8252805f5260206006815261213060405f206116c5565b9280519384156121a857805161216e5750505061214d9150611b3d565b505f60405161215b81611687565b5260405161216881611687565b5f815290565b6118479350846121886040519687948680870191016115ad565b820161219c825180938680850191016115ad565b010380845201826116a3565b935050505090565b6121b982611b3d565b6001600160a01b0393909190841680151580612261575b8061223e575b612226575083169282918491167f8c5be1e5ebec7d5bd14f71427d1e84f3dd0314c0f7b2291e5b200ac8c7c3b9255f80a45f52600460205260405f20906001600160601b0360a01b825416179055565b6024906040519063a9fbf51f60e01b82526004820152fd5b508483165f52600560205260405f20815f5260205260ff60405f205416156121d6565b508085841614156121d0565b815191906041830361229d576122969250602082015190606060408401519301515f1a90612411565b9192909190565b50505f9160029190565b600481101561231657806122b9575050565b600181036122d35760405163f645eedf60e01b8152600490fd5b600281036122f45760405163fce698f760e01b815260048101839052602490fd5b6003146122fe5750565b602490604051906335e2f38360e21b82526004820152fd5b634e487b7160e01b5f52602160045260245ffd5b80156123e2575f81805b6123ce5750612342816117da565b9061235060405192836116a3565b808252601f1961235f826117da565b013660208401375b809280156123c7575f198201918211611ada578193600a926030908484068201809211611ada57855111156123b35760f81b6001600160f81b0319165f1a908401601f01530491612367565b634e487b7160e01b5f52603260045260245ffd5b5050905090565b906123da600a91611acc565b910480612334565b506040516040810181811067ffffffffffffffff8211176116735760405260018152600360fc1b602082015290565b91907f7fffffffffffffffffffffffffffffff5d576e7357a4501ddfe92f46681b20a08411612493579160209360809260ff5f9560405194855216868401526040830152606082015282805260015afa15612488575f516001600160a01b0381161561247e57905f905f90565b505f906001905f90565b6040513d5f823e3d90fd5b5050505f916003919056fe9b779b17422d0df92223018b32b4d1fa46e071723d6817e2486d003becc55f00a26469706673582212204c6a4014f58fc0d8c1b6f3f74024ba9853316a0981a95d9d710879365f67acb164736f6c63430008180033","linkReferences":{}},"methodIdentifiers":{"MAX_DAILY_MINT()":"5923f705","MAX_MINT_PER_TX()":"8ecad721","MAX_SUPPLY()":"32cb6b0c","MINT_FEE()":"d7bf81a3","approve(address,uint256)":"095ea7b3","authorizedSigner()":"c771909c","balanceOf(address)":"70a08231","blessings(uint256)":"14e9fdb3","buyItem(uint256)":"e7fb74c7","cancelListing(uint256)":"305a67a8","creatorRevenue(address)":"9ef7dace","dailyMintedCount(address)":"4cbdd70e","getApproved(uint256)":"081812fc","getListing(uint256)":"107a274a","isApprovedForAll(address,address)":"e985e9c5","lastMintDay(address)":"2ddbeb52","listItem(uint256,uint256)":"883efa67","listings(uint256)":"de74e57b","mint(string,uint8)":"f3006c87","mintWithSignature(string,uint8,uint256,bytes)":"8c6faa8b","name()":"06fdde03","owner()":"8da5cb5b","ownerOf(uint256)":"6352211e","rarities(uint256)":"17b8e1cf","renounceOwnership()":"715018a6","safeTransferFrom(address,address,uint256)":"42842e0e","safeTransferFrom(address,address,uint256,bytes)":"b88d4fde","setApprovalForAll(address,bool)":"a22cb465","setAuthorizedSigner(address)":"d279b0ca","supportsInterface(bytes4)":"01ffc9a7","symbol()":"95d89b41","tokenURI(uint256)":"c87b56dd","transferFrom(address,address,uint256)":"23b872dd","transferOwnership(address)":"f2fde38b","txMintCount(address)":"c211372b","usedSignatures(bytes)":"e949580e","withdrawRevenue()":"4f573cb2"},"id":47}