{"abi":[{"type":"constructor","inputs":[],"stateMutability":"nonpayable"},{"type":"function","name":"MAX_DAILY_MINT","inputs":[],"outputs":[{"name":"","type":"uint256","internalType":"uint256"}],"stateMutability":"view"},{"type":"function","name":"MAX_MINT_PER_TX","inputs":[],"outputs":[{"name":"","type":"uint256","internalType":"uint256"}],"stateMutability":"view"},{"type":"function","name":"MAX_SUPPLY","inputs":[],"outputs":[{"name":"","type":"uint256","internalType":"uint256"}],"stateMutability":"view"},{"type":"function","name":"MINT_FEE","inputs":[],"outputs":[{"name":"","type":"uint256","internalType":"uint256"}],"stateMutability":"view"},{"type":"function","name":"approve","inputs":[{"name":"to","type":"address","internalType":"address"},{"name":"tokenId","type":"uint256","internalType":"uint256"}],"outputs":[],"stateMutability":"nonpayable"},{"type":"function","name":"authorizedSigner","inputs":[],"outputs":[{"name":"","type":"address","internalType":"address"}],"stateMutability":"view"},{"type":"function","name":"balanceOf","inputs":[{"name":"owner","type":"address","internalType":"address"}],"outputs":[{"name":"","type":"uint256","internalType":"uint256"}],"stateMutability":"view"},{"type":"function","name":"blessings","inputs":[{"name":"","type":"uint256","internalType":"uint256"}],"outputs":[{"name":"","type":"string","internalType":"string"}],"stateMutability":"view"},{"type":"function","name":"buyItem","inputs":[{"name":"tokenId","type":"uint256","internalType":"uint256"}],"outputs":[],"stateMutability":"payable"},{"type":"function","name":"cancelListing","inputs":[{"name":"tokenId","type":"uint256","internalType":"uint256"}],"outputs":[],"stateMutability":"nonpayable"},{"type":"function","name":"creatorRevenue","inputs":[{"name":"","type":"address","internalType":"address"}],"outputs":[{"name":"","type":"uint256","internalType":"uint256"}],"stateMutability":"view"},{"type":"function","name":"dailyMintedCount","inputs":[{"name":"","type":"address","internalType":"address"}],"outputs":[{"name":"","type":"uint256","internalType":"uint256"}],"stateMutability":"view"},{"type":"function","name":"getApproved","inputs":[{"name":"tokenId","type":"uint256","internalType":"uint256"}],"outputs":[{"name":"","type":"address","internalType":"address"}],"stateMutability":"view"},{"type":"function","name":"getListing","inputs":[{"name":"tokenId","type":"uint256","internalType":"uint256"}],"outputs":[{"name":"","type":"address","internalType":"address"},{"name":"","type":"uint256","internalType":"uint256"},{"name":"","type":"bool","internalType":"bool"}],"stateMutability":"view"},{"type":"function","name":"isApprovedForAll","inputs":[{"name":"owner","type":"address","internalType":"address"},{"name":"operator","type":"address","internalType":"address"}],"outputs":[{"name":"","type":"bool","internalType":"bool"}],"stateMutability":"view"},{"type":"function","name":"lastMintDay","inputs":[{"name":"","type":"address","internalType":"address"}],"outputs":[{"name":"","type":"uint256","internalType":"uint256"}],"stateMutability":"view"},{"type":"function","name":"listItem","inputs":[{"name":"tokenId","type":"uint256","internalType":"uint256"},{"name":"price","type":"uint256","internalType":"uint256"}],"outputs":[],"stateMutability":"nonpayable"},{"type":"function","name":"listings","inputs":[{"name":"","type":"uint256","internalType":"uint256"}],"outputs":[{"name":"seller","type":"address","internalType":"address"},{"name":"price","type":"uint256","internalType":"uint256"},{"name":"isListed","type":"bool","internalType":"bool"}],"stateMutability":"view"},{"type":"function","name":"mint","inputs":[{"name":"blessing","type":"string","internalType":"string"},{"name":"rarity","type":"uint8","internalType":"uint8"}],"outputs":[],"stateMutability":"payable"},{"type":"function","name":"mintWithSignature","inputs":[{"name":"blessing","type":"string","internalType":"string"},{"name":"rarity","type":"uint8","internalType":"uint8"},{"name":"expiresAt","type":"uint256","internalType":"uint256"},{"name":"signature","type":"bytes","internalType":"bytes"}],"outputs":[],"stateMutability":"payable"},{"type":"function","name":"name","inputs":[],"outputs":[{"name":"","type":"string","internalType":"string"}],"stateMutability":"view"},{"type":"function","name":"owner","inputs":[],"outputs":[{"name":"","type":"address","internalType":"address"}],"stateMutability":"view"},{"type":"function","name":"ownerOf","inputs":[{"name":"tokenId","type":"uint256","internalType":"uint256"}],"outputs":[{"name":"","type":"address","internalType":"address"}],"stateMutability":"view"},{"type":"function","name":"rarities","inputs":[{"name":"","type":"uint256","internalType":"uint256"}],"outputs":[{"name":"","type":"uint8","internalType":"uint8"}],"stateMutability":"view"},{"type":"function","name":"renounceOwnership","inputs":[],"outputs":[],"stateMutability":"nonpayable"},{"type":"function","name":"royaltyInfo","inputs":[{"name":"tokenId","type":"uint256","internalType":"uint256"},{"name":"salePrice","type":"uint256","internalType":"uint256"}],"outputs":[{"name":"receiver","type":"address","internalType":"address"},{"name":"amount","type":"uint256","internalType":"uint256"}],"stateMutability":"view"},{"type":"function","name":"safeTransferFrom","inputs":[{"name":"from","type":"address","internalType":"address"},{"name":"to","type":"address","internalType":"address"},{"name":"tokenId","type":"uint256","internalType":"uint256"}],"outputs":[],"stateMutability":"nonpayable"},{"type":"function","name":"safeTransferFrom","inputs":[{"name":"from","type":"address","internalType":"address"},{"name":"to","type":"address","internalType":"address"},{"name":"tokenId","type":"uint256","internalType":"uint256"},{"name":"data","type":"bytes","internalType":"bytes"}],"outputs":[],"stateMutability":"nonpayable"},{"type":"function","name":"setApprovalForAll","inputs":[{"name":"operator","type":"address","internalType":"address"},{"name":"approved","type":"bool","internalType":"bool"}],"outputs":[],"stateMutability":"nonpayable"},{"type":"function","name":"setAuthorizedSigner","inputs":[{"name":"_signer","type":"address","internalType":"address"}],"outputs":[],"stateMutability":"nonpayable"},{"type":"function","name":"supportsInterface","inputs":[{"name":"interfaceId","type":"bytes4","internalType":"bytes4"}],"outputs":[{"name":"","type":"bool","internalType":"bool"}],"stateMutability":"view"},{"type":"function","name":"symbol","inputs":[],"outputs":[{"name":"","type":"string","internalType":"string"}],"stateMutability":"view"},{"type":"function","name":"tokenURI","inputs":[{"name":"tokenId","type":"uint256","internalType":"uint256"}],"outputs":[{"name":"","type":"string","internalType":"string"}],"stateMutability":"view"},{"type":"function","name":"transferFrom","inputs":[{"name":"from","type":"address","internalType":"address"},{"name":"to","type":"address","internalType":"address"},{"name":"tokenId","type":"uint256","internalType":"uint256"}],"outputs":[],"stateMutability":"nonpayable"},{"type":"function","name":"transferOwnership","inputs":[{"name":"newOwner","type":"address","internalType":"address"}],"outputs":[],"stateMutability":"nonpayable"},{"type":"function","name":"txMintCount","inputs":[{"name":"","type":"address","internalType":"address"}],"outputs":[{"name":"","type":"uint256","internalType":"uint256"}],"stateMutability":"view"},{"type":"function","name":"usedSignatures","inputs":[{"name":"","type":"bytes","internalType":"bytes"}],"outputs":[{"name":"","type":"bool","internalType":"bool"}],"stateMutability":"view"},{"type":"function","name":"withdrawRevenue","inputs":[],"outputs":[],"stateMutability":"nonpayable"},{"type":"event","name":"Approval","inputs":[{"name":"owner","type":"address","indexed":true,"internalType":"address"},{"name":"approved","type":"address","indexed":true,"internalType":"address"},{"name":"tokenId","type":"uint256","indexed":true,"internalType":"uint256"}],"anonymous":false},{"type":"event","name":"ApprovalForAll","inputs":[{"name":"owner","type":"address","indexed":true,"internalType":"address"},{"name":"operator","type":"address","indexed":true,"internalType":"address"},{"name":"approved","type":"bool","indexed":false,"internalType":"bool"}],"anonymous":false},{"type":"event","name":"BatchMetadataUpdate","inputs":[{"name":"_fromTokenId","type":"uint256","indexed":false,"internalType":"uint256"},{"name":"_toTokenId","type":"uint256","indexed":false,"internalType":"uint256"}],"anonymous":false},{"type":"event","name":"ItemBought","inputs":[{"name":"tokenId","type":"uint256","indexed":true,"internalType":"uint256"},{"name":"buyer","type":"address","indexed":true,"internalType":"address"},{"name":"price","type":"uint256","indexed":false,"internalType":"uint256"}],"anonymous":false},{"type":"event","name":"ItemListed","inputs":[{"name":"tokenId","type":"uint256","indexed":true,"internalType":"uint256"},{"name":"seller","type":"address","indexed":true,"internalType":"address"},{"name":"price","type":"uint256","indexed":false,"internalType":"uint256"}],"anonymous":false},{"type":"event","name":"ListingCancelled","inputs":[{"name":"tokenId","type":"uint256","indexed":true,"internalType":"uint256"}],"anonymous":false},{"type":"event","name":"MetadataUpdate","inputs":[{"name":"_tokenId","type":"uint256","indexed":false,"internalType":"uint256"}],"anonymous":false},{"type":"event","name":"OwnershipTransferred","inputs":[{"name":"previousOwner","type":"address","indexed":true,"internalType":"address"},{"name":"newOwner","type":"address","indexed":true,"internalType":"address"}],"anonymous":false},{"type":"event","name":"Transfer","inputs":[{"name":"from","type":"address","indexed":true,"internalType":"address"},{"name":"to","type":"address","indexed":true,"internalType":"address"},{"name":"tokenId","type":"uint256","indexed":true,"internalType":"uint256"}],"anonymous":false},{"type":"error","name":"ECDSAInvalidSignature","inputs":[]},{"type":"error","name":"ECDSAInvalidSignatureLength","inputs":[{"name":"length","type":"uint256","internalType":"uint256"}]},{"type":"error","name":"ECDSAInvalidSignatureS","inputs":[{"name":"s","type":"bytes32","internalType":"bytes32"}]},{"type":"error","name":"ERC2981InvalidDefaultRoyalty","inputs":[{"name":"numerator","type":"uint256","internalType":"uint256"},{"name":"denominator","type":"uint256","internalType":"uint256"}]},{"type":"error","name":"ERC2981InvalidDefaultRoyaltyReceiver","inputs":[{"name":"receiver","type":"address","internalType":"address"}]},{"type":"error","name":"ERC2981InvalidTokenRoyalty","inputs":[{"name":"tokenId","type":"uint256","internalType":"uint256"},{"name":"numerator","type":"uint256","internalType":"uint256"},{"name":"denominator","type":"uint256","internalType":"uint256"}]},{"type":"error","name":"ERC2981InvalidTokenRoyaltyReceiver","inputs":[{"name":"tokenId","type":"uint256","internalType":"uint256"},{"name":"receiver","type":"address","internalType":"address"}]},{"type":"error","name":"ERC721IncorrectOwner","inputs":[{"name":"sender","type":"address","internalType":"address"},{"name":"tokenId","type":"uint256","internalType":"uint256"},{"name":"owner","type":"address","internalType":"address"}]},{"type":"error","name":"ERC721InsufficientApproval","inputs":[{"name":"operator","type":"address","internalType":"address"},{"name":"tokenId","type":"uint256","internalType":"uint256"}]},{"type":"error","name":"ERC721InvalidApprover","inputs":[{"name":"approver","type":"address","internalType":"address"}]},{"type":"error","name":"ERC721InvalidOperator","inputs":[{"name":"operator","type":"address","internalType":"address"}]},{"type":"error","name":"ERC721InvalidOwner","inputs":[{"name":"owner","type":"address","internalType":"address"}]},{"type":"error","name":"ERC721InvalidReceiver","inputs":[{"name":"receiver","type":"address","internalType":"address"}]},{"type":"error","name":"ERC721InvalidSender","inputs":[{"name":"sender","type":"address","internalType":"address"}]},{"type":"error","name":"ERC721NonexistentToken","inputs":[{"name":"tokenId","type":"uint256","internalType":"uint256"}]},{"type":"error","name":"OwnableInvalidOwner","inputs":[{"name":"owner","type":"address","internalType":"address"}]},{"type":"error","name":"OwnableUnauthorizedAccount","inputs":[{"name":"account","type":"address","internalType":"address"}]},{"type":"error","name":"ReentrancyGuardReentrantCall","inputs":[]}],"bytecode":{"object":"0x604060808152346200038a57620000156200038e565b600d815260206c437962657220466f7274756e6560981b818301526200003a6200038e565b600881526743464f5254554e4560c01b8282015282516001600160401b039391848211620001ad575f54916001938484811c941680156200037f575b868510146200029d578190601f948581116200032c575b508690858311600114620002c8575f92620002bc575b50505f19600383901b1c191690841b175f555b805191858311620001ad578354918483811c93168015620002b1575b868410146200029d57828285941162000248575b5085918311600114620001e4575f92620001d8575b50505f19600383901b1c191690821b1781555b3315620001c15760098054336001600160a01b0319821681179092556001600160a01b03167f8be0079c531659141344cd1fd0a4f28419497f9722a3daafe3b4186f6b6457e05f80a37f9b779b17422d0df92223018b32b4d1fa46e071723d6817e2486d003becc55f0055825180840192831181841017620001ad576101f49284523381520152607d60a21b3317600755516125c69081620003af8239f35b634e487b7160e01b5f52604160045260245ffd5b8351631e4fbdf760e01b81525f6004820152602490fd5b015190505f80620000fb565b90849350601f19831691845f52865f20925f5b8882821062000231575050841162000218575b505050811b0181556200010e565b01515f1960f88460031b161c191690555f80806200020a565b8385015186558897909501949384019301620001f7565b90919250845f52855f208380860160051c82019288871062000293575b91869588929594930160051c01915b82811062000284575050620000e6565b5f815586955087910162000274565b9250819262000265565b634e487b7160e01b5f52602260045260245ffd5b92607f1692620000d2565b015190505f80620000a3565b90869350601f198316915f8052885f20925f5b8a828210620003155750508411620002fc575b505050811b015f55620000b6565b01515f1960f88460031b161c191690555f8080620002ee565b8385015186558a97909501949384019301620002db565b9091505f8052865f208580850160051c82019289861062000375575b918891869594930160051c01915b828110620003665750506200008d565b5f815585945088910162000356565b9250819262000348565b93607f169362000076565b5f80fd5b60408051919082016001600160401b03811183821017620001ad5760405256fe608060409080825260049081361015610016575f80fd5b5f3560e01c90816301ffc9a7146115c85750806306fdde031461151b578063081812fc146114fc578063095ea7b3146114d6578063107a274a1461146357806314e9fdb31461143957806317b8e1cf1461140e57806323b872dd146113f75780632a55205a1461135c5780632ddbeb5214611325578063305a67a81461126957806332cb6b0c1461124d57806342842e0e1461121f5780634cbdd70e146111e85780634f573cb21461113a5780635923f7051461111f5780636352211e146110ef57806370a082311461109a578063715018a61461103f578063883efa6714610ec05780638c6faa8b14610a735780638da5cb5b14610a4b5780638ecad72114610a3057806395d89b411461094d5780639ef7dace14610916578063a22cb46514610854578063b88d4fde146107fa578063c211372b146107c3578063c771909c1461079b578063c87b56dd14610768578063d279b0ca146106ee578063d7bf81a3146106cd578063de74e57b14610676578063e7fb74c714610484578063e949580e14610423578063e985e9c5146103d5578063f2fde38b1461034c5763f3006c87146101c2575f80fd5b816003193601126103485767ffffffffffffffff908035828111610348576101ed903690830161186b565b6101f8939193611899565b9261020c662386f26fc10000341015611b19565b600a549461021d6127108710611b5d565b61022686611b9e565b600a556102338633611d5d565b855f526020916010602052875f20948411610335575061025d8361025786546116d8565b86611bc0565b5f91601f84116001146102c85750826102bb979360ff9593610294935f926102bd575b50508160011b915f199060031b1c19161790565b90555b835f5260116020525f20911660ff198254161790556102b581611eeb565b90611f67565b005b013590505f80610280565b91601f198416855f5260205f20935f905b82821061031d5750509260019285926102bb9a9660ff989610610304575b505050811b019055610297565b01355f19600384901b60f8161c191690555f80806102f7565b806001859782949688013581550196019301906102d9565b604190634e487b7160e01b5f525260245ffd5b5f80fd5b5034610348576020366003190112610348576103666116ac565b9061036f611d02565b6001600160a01b039182169283156103bf575050600954826001600160601b0360a01b821617600955167f8be0079c531659141344cd1fd0a4f28419497f9722a3daafe3b4186f6b6457e05f80a3005b905f6024925191631e4fbdf760e01b8352820152fd5b82346103485780600319360112610348576020906103f16116ac565b6103f96116c2565b9060018060a01b038091165f5260058452825f2091165f52825260ff815f20541690519015158152f35b5090346103485760203660031901126103485781359167ffffffffffffffff83116103485761046f602061045d60ff9382963691016118fb565b81855193828580945193849201611666565b8101600c815203019020541690519015158152f35b506020806003193601126103485781359061049d611d2e565b815f5260128152835f209084516104b381611710565b60018060a01b03908184541681526104e360ff600260018701549686850197885201541615158089840152611ae0565b8351341061063c576104f485611919565b823091160361060a578181511633156105f4576105118633611c49565b80841680610530578951637e27328960e01b8152808a01899052602490fd5b90828a9992036105c0575050505f80809381935116819034156105b6575b3491f1156105ac577fd73457218f6ab2c74e548247b8ccd99af11d7975e2beef89a0cd9743fb558da491835f52601282525f600286822082815582600182015501555193519384523393a360015f8051602061257183398151915255005b83513d5f823e3d90fd5b6108fc915061054e565b88516364283d7b60e01b81526001600160a01b03938416928101928352602083018990529216604082015281906060010390fd5b8751633250574960e11b81525f81890152602490fd5b865162461bcd60e51b8152808701849052600c60248201526b139bdd08185c1c1c9bdd995960a21b6044820152606490fd5b865162461bcd60e51b81528087018490526014602482015273125b9cdd59999a58da595b9d081c185e5b595b9d60621b6044820152606490fd5b503461034857602036600319011261034857355f90815260126020908152908290208054600182015460029092015493516001600160a01b0390911681529182015260ff90911615156040820152606090f35b0390f35b8234610348575f3660031901126103485760209051662386f26fc100008152f35b5034610348576020366003190112610348576107086116ac565b610710611d02565b6001600160a01b031691821561073457600b80546001600160a01b03191684179055005b906020606492519162461bcd60e51b8352820152600e60248201526d24b73b30b634b21039b4b3b732b960911b6044820152fd5b509034610348576020366003190112610348576107886106c992356121d3565b9051918291602083526020830190611687565b8234610348575f36600319011261034857600b5490516001600160a01b039091168152602090f35b8234610348576020366003190112610348576020906001600160a01b036107e86116ac565b165f52600f8252805f20549051908152f35b5034610348576080366003190112610348576108146116ac565b61081c6116c2565b6044359060643567ffffffffffffffff8111610348576102bb94610842913691016118fb565b9261084e83838361193d565b33612089565b50903461034857806003193601126103485761086e6116ac565b9060243580151592838203610348573315610900576001600160a01b03169384156108e957506108bd90335f526005602052825f20855f52602052825f209060ff801983541691151516179055565b519081527f17307eab39ab6107e8899845ad3d59bd9653f200f220920489ca2b5937696c3160203392a3005b8251630b61174360e31b8152908101859052602490fd5b825163a9fbf51f60e01b81525f81870152602490fd5b8234610348576020366003190112610348576020906001600160a01b0361093b6116ac565b165f5260138252805f20549051908152f35b8234610348575f366003190112610348578051905f908260019260015493610974856116d8565b90818452602095866001821691825f14610a0e5750506001146109b3575b50506106c992916109a491038561175c565b51928284938452830190611687565b9085925060015f527fb10e2d527612073b26eecdfd717e6a320cf44b4afac2b0732d9fcbe2b7fa0cf6915f925b8284106109f657505050820101816109a4610992565b8054848a0186015288955087949093019281016109e0565b60ff19168682015292151560051b850190920192508391506109a49050610992565b8234610348575f366003190112610348576020905160058152f35b8234610348575f3660031901126103485760095490516001600160a01b039091168152602090f35b5060803660031901126103485767ffffffffffffffff91813583811161034857610aa0903690840161186b565b939091610aab611899565b91604495863596606495863584811161034857610acb9036908a0161186b565b90610ad4611d2e565b610ae7662386f26fc10000341015611b19565b610af6612710600a5410611b5d565b8a421015610e8b5760ff88169760058911610e5957335f5260209b600f8d526005895f20541015610e255790610b8360758e93335f52600f85528b5f20610b3d8154611b9e565b9055600a54938c51948592878401978d8c8a378d85019360ff60f81b9060f81b1690840152602183015260418201523360601b606182015203605581018452018261175c565b5190207f19457468657265756d205369676e6564204d6573736167653a0a3332000000005f52601c52610bd0610bc7603c5f20610bc13686866118c5565b9061233f565b90929192612379565b600b546001600160a01b03908116911603610df05760ff8751838382378c81858101600c8152030190205416610db6578a9082885193849283378101600c8152030190209660019260ff199860018a825416179055620151804204335f52600e8c5280885f205403610d9f575b50600d8b52600a875f20541015610d6d575050335f52600d8952845f20610c648154611b9e565b9055600a5497610c7389611b9e565b600a55610c808933611d5d565b885f5260108a52855f209484116103355750610ca08361025786546116d8565b5f91601f8411600114610d02575082610cef999360119593610cd6935f926102bd5750508160011b915f199060031b1c19161790565b90555b855f52525f20918254161790556102b581611eeb565b60015f8051602061257183398151915255005b91601f198416855f528a5f20935f905b828210610d56575050926001928592610cef9c966011989610610d3d575b505050811b019055610cd9565b01355f19600384901b60f8161c191690555f8080610d30565b84840135865594850194928c0192908c0190610d12565b6f11185a5b1e481b5a5b9d081b1a5b5a5d60821b8a918c89519362461bcd60e51b855284015260106024840152820152fd5b600d8c525f88812055600e8c52875f20555f610c3d565b865162461bcd60e51b8152808b018c9052601660248201527514da59db985d1d5c9948185b1c9958591e481d5cd95960521b818601528990fd5b865162461bcd60e51b8152808b018c90526011602482015270496e76616c6964207369676e617475726560781b818601528990fd5b50875162461bcd60e51b8152808c018d9052600f60248201526e09ac2f040dad2dce840e0cae440e8f608b1b818701528a90fd5b875162461bcd60e51b81526020818d0152600e60248201526d496e76616c69642072617269747960901b818701528a90fd5b865162461bcd60e51b81526020818c0152601160248201527014da59db985d1d5c9948195e1c1a5c9959607a1b818601528990fd5b503461034857610ecf36611855565b929091610edb83611c0f565b6001600160a01b039190339083160361100c578415610fd557835f52601260205260ff6002845f20015416610fa15750610f7590610f1a338530612282565b6002835191610f2883611710565b338352602083018781528584019160018352875f526012602052865f209451166001600160601b0360a01b85541617845551600184015551151591019060ff801983541691151516179055565b519182527fc93edc6ee14cd6c0c2842099adfa8953b237dbdad304ba28e96dce8a7f2a828c60203393a3005b606490602084519162461bcd60e51b8352820152600e60248201526d105b1c9958591e481b1a5cdd195960921b6044820152fd5b606490602084519162461bcd60e51b8352820152601160248201527005072696365206d757374206265203e203607c1b6044820152fd5b606490602084519162461bcd60e51b8352820152600d60248201526c2737ba103a34329037bbb732b960991b6044820152fd5b34610348575f36600319011261034857611057611d02565b600980546001600160a01b031981169091555f906001600160a01b03167f8be0079c531659141344cd1fd0a4f28419497f9722a3daafe3b4186f6b6457e08280a3005b509034610348576020366003190112610348576001600160a01b036110bd6116ac565b1680156110d957602092505f5260038252805f20549051908152f35b81516322718ad960e21b81525f81850152602490fd5b5090346103485760203660031901126103485761110e60209235611c0f565b90516001600160a01b039091168152f35b8234610348575f3660031901126103485760209051600a8152f35b5034610348575f36600319011261034857611153611d02565b61115b611d2e565b6009546001600160a01b039081165f8181526013602052849020549283156111b857505f8093819382938352601360205282878120556009541682f1156111af5760015f8051602061257183398151915255005b513d5f823e3d90fd5b606490602086519162461bcd60e51b8352820152600a6024820152694e6f20726576656e756560b01b6044820152fd5b8234610348576020366003190112610348576020906001600160a01b0361120d6116ac565b165f52600d8252805f20549051908152f35b8234610348576102bb9061123236611820565b9192519261123f84611740565b5f845261084e83838361193d565b8234610348575f36600319011261034857602090516127108152f35b5090346103485760203660031901126103485781355f8181526012602052829020549092906001600160a01b031633036112f6575060025f9183835260126020526112bb60ff83838620015416611ae0565b8383526012602052822082815582600182015501557f411aee90354c51b1b04cd563fcab2617142a9d50da19232d888547c8a1b7fd8a5f80a2005b6020606492519162461bcd60e51b8352820152600a6024820152692737ba1039b2b63632b960b11b6044820152fd5b8234610348576020366003190112610348576020906001600160a01b0361134a6116ac565b165f52600e8252805f20549051908152f35b5090346103485761136c36611855565b91905f526008602052805f20549260018060a01b038085169460a01c9085156113dd575b506001600160601b0316928381029381850414901517156113ca5750516001600160a01b0392909216825261271090046020820152604090f35b601190634e487b7160e01b5f525260245ffd5b600754908116955060a01c90506001600160601b03611390565b34610348576102bb61140836611820565b9161193d565b50903461034857602036600319011261034857602091355f526011825260ff815f2054169051908152f35b509034610348576020366003190112610348576106c991355f526010602052610788815f2061177e565b503461034857602036600319011261034857355f526012602052805f20906106c981519161149083611710565b83546001600160a01b03168084526001850154602080860182905260029096015460ff161515948301859052915190815293840152604083019190915281906060820190565b823461034857366003190112610348576102bb6114f16116ac565b339060243590612282565b5090346103485760203660031901126103485761110e60209235611919565b8234610348575f366003190112610348578051905f90825f549261153e846116d8565b808352602094600190866001821691825f14610a0e57505060011461156f5750506106c992916109a491038561175c565b5f80805286935091907f290decd9548b62a8d60345a988386fc84ba6bc95484008f6362f93160ef3e5635b8284106115b057505050820101816109a4610992565b8054848a01860152889550879490930192810161159a565b823461034857602036600319011261034857359063ffffffff60e01b82168092036103485760209163152a902d60e11b8114908115611609575b5015158152f35b632483248360e11b811491508115611623575b5083611602565b6380ac58cd60e01b811491508115611655575b8115611644575b508361161c565b6301ffc9a760e01b1490508361163d565b635b5e139f60e01b81149150611636565b5f5b8381106116775750505f910152565b8181015183820152602001611668565b906020916116a081518092818552858086019101611666565b601f01601f1916010190565b600435906001600160a01b038216820361034857565b602435906001600160a01b038216820361034857565b90600182811c92168015611706575b60208310146116f257565b634e487b7160e01b5f52602260045260245ffd5b91607f16916116e7565b6060810190811067ffffffffffffffff82111761172c57604052565b634e487b7160e01b5f52604160045260245ffd5b6020810190811067ffffffffffffffff82111761172c57604052565b90601f8019910116810190811067ffffffffffffffff82111761172c57604052565b9060405191825f8254611790816116d8565b908184526020946001916001811690815f146117fe57506001146117c0575b5050506117be9250038361175c565b565b5f90815285812095935091905b8183106117e65750506117be93508201015f80806117af565b855488840185015294850194879450918301916117cd565b925050506117be94925060ff191682840152151560051b8201015f80806117af565b6060906003190112610348576001600160a01b0390600435828116810361034857916024359081168103610348579060443590565b6040906003190112610348576004359060243590565b9181601f840112156103485782359167ffffffffffffffff8311610348576020838186019501011161034857565b6024359060ff8216820361034857565b67ffffffffffffffff811161172c57601f01601f191660200190565b9291926118d1826118a9565b916118df604051938461175c565b829481845281830111610348578281602093845f960137010152565b9080601f8301121561034857816020611916933591016118c5565b90565b61192281611c0f565b505f908152600460205260409020546001600160a01b031690565b906001600160a01b039081168015611ac857835f52602091600283528460409282845f2054169433151580611a33575b5060029086611a02575b825f5260038152855f2060018154019055835f5252835f20816001600160601b0360a01b825416179055847fddf252ad1be2c89b69c2b068fc378daa952ba7f163c4a11628f55a4df523b3ef5f80a4831682036119d45750505050565b516364283d7b60e01b81526001600160a01b0392831660048201526024810193909352166044820152606490fd5b5f84815260046020526040812080546001600160a01b03191690558781526003825286902080545f19019055611977565b9192509080611a87575b15611a4b579086915f61196d565b838786611a68576024915190637e27328960e01b82526004820152fd5b905163177e802f60e01b81523360048201526024810191909152604490fd5b503385148015611aac575b80611a3d5750865f52600481523383855f20541614611a3d565b50845f5260058152835f20335f52815260ff845f205416611a92565b604051633250574960e11b81525f6004820152602490fd5b15611ae757565b60405162461bcd60e51b815260206004820152600a602482015269139bdd081b1a5cdd195960b21b6044820152606490fd5b15611b2057565b60405162461bcd60e51b8152602060048201526015602482015274496e73756666696369656e74206d696e742066656560581b6044820152606490fd5b15611b6457565b60405162461bcd60e51b815260206004820152601260248201527113585e081cdd5c1c1b1e481c995858da195960721b6044820152606490fd5b5f198114611bac5760010190565b634e487b7160e01b5f52601160045260245ffd5b601f8211611bcd57505050565b5f5260205f20906020601f840160051c83019310611c05575b601f0160051c01905b818110611bfa575050565b5f8155600101611bef565b9091508190611be6565b5f818152600260205260409020546001600160a01b0316908115611c31575090565b60249060405190637e27328960e01b82526004820152fd5b5f828152600260205260409020546001600160a01b03908116929183611ccf575b1680611cb7575b815f52600260205260405f20816001600160601b0360a01b825416179055827fddf252ad1be2c89b69c2b068fc378daa952ba7f163c4a11628f55a4df523b3ef5f80a490565b805f52600360205260405f2060018154019055611c71565b5f83815260046020526040902080546001600160a01b0319169055835f52600360205260405f205f198154019055611c6a565b6009546001600160a01b03163303611d1657565b60405163118cdaa760e01b8152336004820152602490fd5b5f805160206125718339815191526002815414611d4b5760029055565b604051633ee5aeb560e01b8152600490fd5b906040908151611d6c81611740565b5f81526001600160a01b0384811694908515611ed457611d8c8483611c49565b16611ebd573b611d9d575b50505050565b90611ddb9491835190630a85bd0160e11b928383523360048401525f6024840152604483015260806064830152818060209889936084830190611687565b03815f895af15f9181611e7d575b50611e47575050503d5f14611e3f573d92611e03846118a9565b93611e108351958661175c565b84523d5f8286013e5b83519384611e39578251633250574960e11b815260048101859052602490fd5b84925001fd5b606092611e19565b9194506001600160e01b031990911603611e665750505f808080611d97565b602492505190633250574960e11b82526004820152fd5b9091508681813d8311611eb6575b611e95818361175c565b8101031261034857516001600160e01b03198116810361034857905f611de9565b503d611e8b565b83516339e3563760e11b81525f6004820152602490fd5b8451633250574960e11b81525f6004820152602490fd5b611ef4906123fc565b611916604a60405180937519185d184e985c1c1b1a58d85d1a5bdb8bda9cdbdb8b60521b6020830152717b226e616d65223a22466f7274756e65202360701b6036830152611f4c815180926020604886019101611666565b810161227d60f01b604882015203602a81018452018261175c565b919091805f526020906006825260405f2084519467ffffffffffffffff861161172c57611f9e86611f9884546116d8565b84611bc0565b8390601f8711600114612005579580611fee927ff8e1a15aba9398e019f0b49df1a4fde98ee17ae345cb5f6b5e2c27f5033e8ce797985f92611ffa5750508160011b915f199060031b1c19161790565b90555b604051908152a1565b015190505f80610280565b90601f19871691835f52855f20925f5b81811061207257509160019391897ff8e1a15aba9398e019f0b49df1a4fde98ee17ae345cb5f6b5e2c27f5033e8ce7999a941061205a575b505050811b019055611ff1565b01515f1960f88460031b161c191690555f808061204d565b929387600181928786015181550195019301612015565b9293909193843b61209c575b5050505050565b604051630a85bd0160e11b8082526001600160a01b0395861660048301529385166024820152604481019190915260806064820152602095949093169392908590829081906120ef906084830190611687565b03815f885af15f9181612193575b5061215c575050503d5f14612154573d91612117836118a9565b92612125604051948561175c565b83523d5f8285013e5b8251928361214f57604051633250574960e11b815260048101849052602490fd5b019050fd5b60609161212e565b9193506001600160e01b03199091160361217b57505f80808080612095565b60249060405190633250574960e11b82526004820152fd5b9091508581813d83116121cc575b6121ab818361175c565b8101031261034857516001600160e01b03198116810361034857905f6120fd565b503d6121a1565b6121dc81611c0f565b50604051906121ea82611740565b5f8252805f5260206006815261220260405f2061177e565b92805193841561227a5780516122405750505061221f9150611c0f565b505f60405161222d81611740565b5260405161223a81611740565b5f815290565b61191693508461225a604051968794868087019101611666565b820161226e82518093868085019101611666565b0103808452018261175c565b935050505090565b61228b82611c0f565b6001600160a01b0393909190841680151580612333575b80612310575b6122f8575083169282918491167f8c5be1e5ebec7d5bd14f71427d1e84f3dd0314c0f7b2291e5b200ac8c7c3b9255f80a45f52600460205260405f20906001600160601b0360a01b825416179055565b6024906040519063a9fbf51f60e01b82526004820152fd5b508483165f52600560205260405f20815f5260205260ff60405f205416156122a8565b508085841614156122a2565b815191906041830361236f576123689250602082015190606060408401519301515f1a906124e3565b9192909190565b50505f9160029190565b60048110156123e8578061238b575050565b600181036123a55760405163f645eedf60e01b8152600490fd5b600281036123c65760405163fce698f760e01b815260048101839052602490fd5b6003146123d05750565b602490604051906335e2f38360e21b82526004820152fd5b634e487b7160e01b5f52602160045260245ffd5b80156124b4575f81805b6124a05750612414816118a9565b90612422604051928361175c565b808252601f19612431826118a9565b013660208401375b80928015612499575f198201918211611bac578193600a926030908484068201809211611bac57855111156124855760f81b6001600160f81b0319165f1a908401601f01530491612439565b634e487b7160e01b5f52603260045260245ffd5b5050905090565b906124ac600a91611b9e565b910480612406565b506040516040810181811067ffffffffffffffff82111761172c5760405260018152600360fc1b602082015290565b91907f7fffffffffffffffffffffffffffffff5d576e7357a4501ddfe92f46681b20a08411612565579160209360809260ff5f9560405194855216868401526040830152606082015282805260015afa1561255a575f516001600160a01b0381161561255057905f905f90565b505f906001905f90565b6040513d5f823e3d90fd5b5050505f916003919056fe9b779b17422d0df92223018b32b4d1fa46e071723d6817e2486d003becc55f00a26469706673582212205021f02dfaed4a930e433e8dbcfc57164ad466172389d6fa8593b50efafff7f764736f6c63430008180033","linkReferences":{}},"methodIdentifiers":{"MAX_DAILY_MINT()":"5923f705","MAX_MINT_PER_TX()":"8ecad721","MAX_SUPPLY()":"32cb6b0c","MINT_FEE()":"d7bf81a3","approve(address,uint256)":"095ea7b3","authorizedSigner()":"c771909c","balanceOf(address)":"70a08231","blessings(uint256)":"14e9fdb3","buyItem(uint256)":"e7fb74c7","cancelListing(uint256)":"305a67a8","creatorRevenue(address)":"9ef7dace","dailyMintedCount(address)":"4cbdd70e","getApproved(uint256)":"081812fc","getListing(uint256)":"107a274a","isApprovedForAll(address,address)":"e985e9c5","lastMintDay(address)":"2ddbeb52","listItem(uint256,uint256)":"883efa67","listings(uint256)":"de74e57b","mint(string,uint8)":"f3006c87","mintWithSignature(string,uint8,uint256,bytes)":"8c6faa8b","name()":"06fdde03","owner()":"8da5cb5b","ownerOf(uint256)":"6352211e","rarities(uint256)":"17b8e1cf","renounceOwnership()":"715018a6","royaltyInfo(uint256,uint256)":"2a55205a","safeTransferFrom(address,address,uint256)":"42842e0e","safeTransferFrom(address,address,uint256,bytes)":"b88d4fde","setApprovalForAll(address,bool)":"a22cb465","setAuthorizedSigner(address)":"d279b0ca","supportsInterface(bytes4)":"01ffc9a7","symbol()":"95d89b41","tokenURI(uint256)":"c87b56dd","transferFrom(address,address,uint256)":"23b872dd","transferOwnership(address)":"f2fde38b","txMintCount(address)":"c211372b","usedSignatures(bytes)":"e949580e","withdrawRevenue()":"4f573cb2"},"id":49}