{"abi":[{"type":"function","name":"approve","inputs":[{"name":"spender","type":"address","internalType":"address"},{"name":"id","type":"uint256","internalType":"uint256"}],"outputs":[],"stateMutability":"payable"},{"type":"function","name":"balanceOf","inputs":[{"name":"owner","type":"address","internalType":"address"}],"outputs":[{"name":"","type":"uint256","internalType":"uint256"}],"stateMutability":"view"},{"type":"function","name":"getApproved","inputs":[{"name":"id","type":"uint256","internalType":"uint256"}],"outputs":[{"name":"","type":"address","internalType":"address"}],"stateMutability":"view"},{"type":"function","name":"initialize","inputs":[{"name":"name_","type":"string","internalType":"string"},{"name":"symbol_","type":"string","internalType":"string"}],"outputs":[],"stateMutability":"nonpayable"},{"type":"function","name":"isApprovedForAll","inputs":[{"name":"owner","type":"address","internalType":"address"},{"name":"operator","type":"address","internalType":"address"}],"outputs":[{"name":"","type":"bool","internalType":"bool"}],"stateMutability":"view"},{"type":"function","name":"name","inputs":[],"outputs":[{"name":"","type":"string","internalType":"string"}],"stateMutability":"view"},{"type":"function","name":"ownerOf","inputs":[{"name":"id","type":"uint256","internalType":"uint256"}],"outputs":[{"name":"owner","type":"address","internalType":"address"}],"stateMutability":"view"},{"type":"function","name":"safeTransferFrom","inputs":[{"name":"from","type":"address","internalType":"address"},{"name":"to","type":"address","internalType":"address"},{"name":"id","type":"uint256","internalType":"uint256"}],"outputs":[],"stateMutability":"payable"},{"type":"function","name":"safeTransferFrom","inputs":[{"name":"from","type":"address","internalType":"address"},{"name":"to","type":"address","internalType":"address"},{"name":"id","type":"uint256","internalType":"uint256"},{"name":"data","type":"bytes","internalType":"bytes"}],"outputs":[],"stateMutability":"payable"},{"type":"function","name":"setApprovalForAll","inputs":[{"name":"operator","type":"address","internalType":"address"},{"name":"approved","type":"bool","internalType":"bool"}],"outputs":[],"stateMutability":"nonpayable"},{"type":"function","name":"supportsInterface","inputs":[{"name":"interfaceId","type":"bytes4","internalType":"bytes4"}],"outputs":[{"name":"","type":"bool","internalType":"bool"}],"stateMutability":"view"},{"type":"function","name":"symbol","inputs":[],"outputs":[{"name":"","type":"string","internalType":"string"}],"stateMutability":"view"},{"type":"function","name":"tokenURI","inputs":[{"name":"id","type":"uint256","internalType":"uint256"}],"outputs":[{"name":"","type":"string","internalType":"string"}],"stateMutability":"view"},{"type":"function","name":"transferFrom","inputs":[{"name":"from","type":"address","internalType":"address"},{"name":"to","type":"address","internalType":"address"},{"name":"id","type":"uint256","internalType":"uint256"}],"outputs":[],"stateMutability":"payable"},{"type":"event","name":"Approval","inputs":[{"name":"_owner","type":"address","indexed":true,"internalType":"address"},{"name":"_approved","type":"address","indexed":true,"internalType":"address"},{"name":"_tokenId","type":"uint256","indexed":true,"internalType":"uint256"}],"anonymous":false},{"type":"event","name":"ApprovalForAll","inputs":[{"name":"_owner","type":"address","indexed":true,"internalType":"address"},{"name":"_operator","type":"address","indexed":true,"internalType":"address"},{"name":"_approved","type":"bool","indexed":false,"internalType":"bool"}],"anonymous":false},{"type":"event","name":"Transfer","inputs":[{"name":"_from","type":"address","indexed":true,"internalType":"address"},{"name":"_to","type":"address","indexed":true,"internalType":"address"},{"name":"_tokenId","type":"uint256","indexed":true,"internalType":"uint256"}],"anonymous":false}],"bytecode":{"object":"0x6080806040523461001657610e84908161001b8239f35b5f80fdfe6080604090808252600480361015610015575f80fd5b5f3560e01c91826301ffc9a714610a555750816306fdde03146109a8578163081812fc1461097a578163095ea7b3146108cb57816323b872dd146108b957816342842e0e146107ff5781634cd88b76146104cd5781636352211e1461046157816370a08231146103f157816395d89b411461030a578163a22cb4651461028b578163b88d4fde1461016757508063c87b56dd1461010b5763e985e9c5146100ba575f80fd5b346101075780600319360112610107576020906100d5610afd565b6100dd610b13565b9060018060a01b038091165f5260058452825f2091165f52825260ff815f20541690519015158152f35b5f80fd5b5034610107576020906020600319360112610107578051809260208252606051908160208401525f5b8281106101525750505f828201840152601f01601f19168101030190f35b60808101518682018601528593508101610134565b905060803660031901126101075761017d610afd565b90610186610b13565b60443560643567ffffffffffffffff81116101075736602382011215610107576101b99036906024818701359101610b94565b916101c5828287610c6d565b803b159485156101db575b6101d986610e0f565b005b6020939495505f60018060a01b0380926102248a5198899788968794630a85bd0160e11b9d8e875233908701521660248501526044840152608060648401526084830190610abf565b0393165af1908115610281576101d993505f91610252575b506001600160e01b031916145f808080806101d0565b610274915060203d60201161027a575b61026c8183610b5e565b810190610def565b5f61023c565b503d610262565b83513d5f823e3d90fd5b82346101075780600319360112610107576102a4610afd565b906024359081151580920361010757335f526005602052805f209260018060a01b031692835f52602052805f2060ff1981541660ff8416179055519081527f17307eab39ab6107e8899845ad3d59bd9653f200f220920489ca2b5937696c3160203392a3005b8234610107575f366003190112610107578051905f90826001926001549361033185610bf8565b90818452602095866001821691825f146103cf575050600114610374575b50506103709291610361910385610b5e565b51928284938452830190610abf565b0390f35b9085925060015f527fb10e2d527612073b26eecdfd717e6a320cf44b4afac2b0732d9fcbe2b7fa0cf6915f925b8284106103b7575050508201018161036161034f565b8054848a0186015288955087949093019281016103a1565b60ff19168682015292151560051b85019092019250839150610361905061034f565b8234610107576020366003190112610107576001600160a01b03610413610afd565b16801561042f57602092505f5260038252805f20549051908152f35b815162461bcd60e51b8152602081850152600c60248201526b5a45524f5f4144445245535360a01b6044820152606490fd5b9050346101075760203660031901126101075780355f9081526002602052829020546001600160a01b031690811561049d575060209151908152f35b606490602084519162461bcd60e51b8352820152600a6024820152691393d517d3525395115160b21b6044820152fd5b823461010757806003193601126101075767ffffffffffffffff8235818111610107576104fd9036908501610bda565b92602435828111610107576105159036908301610bda565b9260ff600654166107c6575083518281116107b357806105355f54610bf8565b95601f96878111610748575b506020908783116001146106c7575f926106bc575b50508160011b915f199060031b1c1916175f555b82519182116106a957506001916105818354610bf8565b848111610647575b5060209382116001146105ce57928192935f926105c3575b50505f19600383901b1c191690821b1781555b60ff1960065416176006555f80f35b0151905083806105a1565b601f19821693835f527fb10e2d527612073b26eecdfd717e6a320cf44b4afac2b0732d9fcbe2b7fa0cf6915f5b868110610631575083859610610619575b505050811b0181556105b4565b01515f1960f88460031b161c1916905583808061060c565b81830151845592850192602092830192016105fb565b835f527fb10e2d527612073b26eecdfd717e6a320cf44b4afac2b0732d9fcbe2b7fa0cf68580850160051c820192602086106106a0575b0160051c019084905b828110610695575050610589565b5f8155018490610687565b9250819261067e565b604190634e487b7160e01b5f525260245ffd5b015190508680610556565b5f8080527f290decd9548b62a8d60345a988386fc84ba6bc95484008f6362f93160ef3e5639350601f198516905b8181106107305750908460019594939210610718575b505050811b015f5561056a565b01515f1960f88460031b161c1916905586808061070b565b929360206001819287860151815501950193016106f5565b9091505f80527f290decd9548b62a8d60345a988386fc84ba6bc95484008f6362f93160ef3e5638780850160051c820192602086106107aa575b9085949392910160051c01905b81811061079c5750610541565b5f815584935060010161078f565b92508192610782565b604182634e487b7160e01b5f525260245ffd5b906020606492519162461bcd60e51b835282015260136024820152721053149150511657d253925512505312569151606a1b6044820152fd5b905061080a36610b29565b906108188282859695610c6d565b803b1593841561082c575b6101d985610e0f565b60209293945060a4905f60018060a01b03809489519788968795630a85bd0160e11b9b8c88523390880152166024860152604485015260806064850152826084850152165af1908115610281576101d993505f9161089a575b506001600160e01b031916145f808080610823565b6108b3915060203d60201161027a5761026c8183610b5e565b5f610885565b6101d96108c536610b29565b91610c6d565b905081600319360112610107576108e0610afd565b9060243592835f52600260205260018060a01b039081815f205416928333148015610957575b61090f90610c30565b855f526020525f20921691826bffffffffffffffffffffffff60a01b8254161790557f8c5be1e5ebec7d5bd14f71427d1e84f3dd0314c0f7b2291e5b200ac8c7c3b9255f80a4005b50835f526005602052815f20335f5260205261090f60ff835f2054169050610906565b82346101075760203660031901126101075781602092355f52825260018060a01b03815f2054169051908152f35b8234610107575f366003190112610107578051905f90825f54926109cb84610bf8565b808352602094600190866001821691825f146103cf5750506001146109fc5750506103709291610361910385610b5e565b5f80805286935091907f290decd9548b62a8d60345a988386fc84ba6bc95484008f6362f93160ef3e5635b828410610a3d575050508201018161036161034f565b8054848a018601528895508794909301928101610a27565b903461010757602036600319011261010757359063ffffffff60e01b8216809203610107576020916301ffc9a760e01b8114908115610aae575b8115610a9d575b5015158152f35b635b5e139f60e01b14905083610a96565b6380ac58cd60e01b81149150610a8f565b91908251928382525f5b848110610ae9575050825f602080949584010152601f8019910116010190565b602081830181015184830182015201610ac9565b600435906001600160a01b038216820361010757565b602435906001600160a01b038216820361010757565b6060906003190112610107576001600160a01b0390600435828116810361010757916024359081168103610107579060443590565b90601f8019910116810190811067ffffffffffffffff821117610b8057604052565b634e487b7160e01b5f52604160045260245ffd5b92919267ffffffffffffffff8211610b805760405191610bbe601f8201601f191660200184610b5e565b829481845281830111610107578281602093845f960137010152565b9080601f8301121561010757816020610bf593359101610b94565b90565b90600182811c92168015610c26575b6020831014610c1257565b634e487b7160e01b5f52602260045260245ffd5b91607f1691610c07565b15610c3757565b60405162461bcd60e51b815260206004820152600e60248201526d1393d517d055551213d49256915160921b6044820152606490fd5b825f5260206002815260018060a01b03926040908480835f2054169416938403610dbe578416938415610d8657610cb690843314908115610d68575b8115610d52575b50610c30565b825f5260038252805f208054908115610d3e575f198092019055845f5260038352815f20908154908114610d3e576001019055845f52600282526004815f20926bffffffffffffffffffffffff60a01b938685825416179055525f209081541690557fddf252ad1be2c89b69c2b068fc378daa952ba7f163c4a11628f55a4df523b3ef5f80a4565b634e487b7160e01b5f52601160045260245ffd5b9050865f5260048452825f20541633145f610cb0565b9050845f5260058452825f20335f52845260ff835f20541690610ca9565b815162461bcd60e51b81526004810184905260116024820152701253959053125117d49150d25412515395607a1b6044820152606490fd5b815162461bcd60e51b815260048101849052600a60248201526957524f4e475f46524f4d60b01b6044820152606490fd5b9081602091031261010757516001600160e01b0319811681036101075790565b15610e1657565b60405162461bcd60e51b815260206004820152601060248201526f155394d0519157d49150d2541251539560821b6044820152606490fdfea26469706673582212206456601b6dba50568d4e8ea6c231e8ba2d6d9157f85f5c831c7ab17dfb6033bd64736f6c63430008180033","linkReferences":{}},"methodIdentifiers":{"approve(address,uint256)":"095ea7b3","balanceOf(address)":"70a08231","getApproved(uint256)":"081812fc","initialize(string,string)":"4cd88b76","isApprovedForAll(address,address)":"e985e9c5","name()":"06fdde03","ownerOf(uint256)":"6352211e","safeTransferFrom(address,address,uint256)":"42842e0e","safeTransferFrom(address,address,uint256,bytes)":"b88d4fde","setApprovalForAll(address,bool)":"a22cb465","supportsInterface(bytes4)":"01ffc9a7","symbol()":"95d89b41","tokenURI(uint256)":"c87b56dd","transferFrom(address,address,uint256)":"23b872dd"},"id":41}